:100000000C94BB0E0C94EA4E0C94BF4E0C94944E80
:100010000C94694E0C943E4E0C94134E0C94E84D87
:100020000C94BD4D0C94EC0E0C94EC0E0C94EC0E58
:100030000C94EC0E0C94154F0C94EC0E0C94EC0EEE
:100040000C94EC0E0C9434640C94EC0E0C94EC0EAA
:100050000C94EC0E0C94EC0E0C94E1950C94734DF6
:100060000C94EC0E0C9435AB0C94EC0E0C94EC0E42
:100070000C94EC0E0C94EC0E0C94EC0E0C94EC0E18
:100080000C94446D0C94EC0E0C94EC0E0C94EC0E51
:100090000C94EC0E0C94EC0E0C94EC0E0C94EC0EF8
:1000A0000C94EC0E0C94EC0E0C94166D0C94EC0E5F
:1000B0000C94EC0E0C94EC0E0C94EC0E0C94E86C7E
:1000C0000C94EC0E0C94EC0E0C94EC0E0C94EC0EC8
:1000D0000C94EC0E0C94EC0E0C94975A0C94585A09
:1000E0000C94EC0E7F289D28D328F1280729352968
:1000F000A829122ABD2A152B462B5F2BE12FA72BEF
:10010000B12BBB2BC52BD62B002C272C3F2C962C90
:10011000A02CAA2CB42CBE2CC82CE12FE02CE92C4E
:100120002E2D812DE12F3E2E442F5D5E625E675E97
:10013000715E7B5EF45E855E8D5E955E9F5EA95E00
:10014000B35EC25ECC5EF45ED65EE05EEA5E6A9648
:1001500078969796A596C096C396C696C996CC965D
:10016000CF96D296D596DF96BFA3C2A3B1A3B5A36F
:10017000BBA3F9A3C6A3CAA3D0A3D4A3D8A3DEA3C9
:10018000E2A3E6A3F9A3ECA3F0A3F4A3084AD73BA8
:100190003BCE016E84BCBFFDC12F3D6C74319ABD56
:1001A00056833DDA3D00C77F11BED9E4BB4C3E917A
:1001B0006BAAAABE000000803F05A84CCDB2D44E69
:1001C000B93836A9020C50B9918688083CA6AAAA6B
:1001D0002ABE000000803F004E414E494E4954590E
:1001E000494E46CDCCCC3D0AD7233C17B7D1387702
:1001F000CC2B329595E6241FB14F0A000020410018
:1002000000C84200401C4620BCBE4CCA1B0E5AAE61
:10021000C59D74434F4D4D554E49434154494F4E32
:100220000044525952554E004552524F52530049C4
:100230004E464F004543484F0020746F6F206C6F4F
:100240006E6720657874727573696F6E2070726561
:1002500076656E7465640A0020636F6C642065784F
:1002600074727573696F6E2070726576656E7465F1
:10027000640A0047322F4733206261642070617244
:10028000616D65746572730A004A303400205A3A11
:10029000200020593A200042656420583A20004549
:1002A0006E642066696C65206C6973740A0042652F
:1002B00067696E2066696C65206C6973740A005307
:1002C00044207072696E74696E672062797465206B
:1002D000004E6F74205344207072696E74696E67AB
:1002E0000A002569730025696D2025697300256959
:1002F000682025696D2025697300256964202569BA
:10030000682025696D202569730025697920256994
:1003100064202569682025696D2025697300507265
:10032000696E742074696D653A200034022F0228CA
:1003300002210213026F66660044454255473A00A7
:100340004B494C4C45442E20006F6B005365747430
:10035000696E672054726176656C20416363656CD9
:1003600065726174696F6E3A200053657474696ECA
:1003700067205265747261637420416363656C65C4
:10038000726174696F6E3A200053657474696E67A8
:10039000205072696E7420416363656C657261748C
:1003A000696F6E3A200053657474696E67205072ED
:1003B000696E7420616E642054726176656C2041B0
:1003C0006363656C65726174696F6E3A20005A20D0
:1003D000456E6473746F702041646A7573746D65E3
:1003E0006E742073657420746F20286D6D293A0037
:1003F000205A00205900580020204D61783A2000F2
:10040000205A00205900580020204D696E3A2000E3
:100410004F6E20004F666600536F667420656E64F1
:1004200073746F70733A2000206F7574206F6620AC
:1004300072616E67650A00536572766F20003A201C
:100440000020536572766F200020643A0020693ADC
:100450000020703A0043290A0061626C656420281C
:100460006D696E2074656D702000436F6C6420654B
:1004700078747275646573206172652000546F6FC3
:10048000206661722066726F6D20726566657265A6
:100490006E636520706F696E740A003A20007A5F9F
:1004A0006D61783A20007A5F6D696E3A20005A20BB
:1004B0004F6666736574004163746976652045789C
:1004C0007472756465723A2000556E6B6E6F776E4C
:1004D00020636F6D6D616E643A202200446F6E651B
:1004E0002C204175746F204C6576656C696E6720B1
:1004F00077617320616374697665642100446F6E6F
:10050000652C204D616E75616C204C6576656C695B
:100510006E6720776173206163746976656421007A
:100520004A3032004A3136004B696C6C6564004ACF
:10053000333320004D61785431004A333320004D6D
:1005400061785430004A333320004D696E543100D5
:100550004A333320004D696E5430004A3333200053
:100560005265616453442063617264206572726FE6
:100570007221004A3333200056312E332E30004A88
:1005800033332000413331562000413331562000AF
:100590004732380A473239004A3236004A3234008C
:1005A0004A3234004132395620004A3032004A3152
:1005B0003200473930004731204525694635303013
:1005C00000473120452D302E314625690047312026
:1005D00045302E31462569004731205A2569462588
:1005E00069004731205A2D302E31462569004731A8
:1005F000205A302E31462569004731205925694659
:10060000256900473120592D302E31462569004794
:10061000312059302E31462569004731205825694F
:1006200046256900473120582D302E314625690076
:1006300047312058302E314625690047393100476F
:10064000323800473238205A0047323820590047A4
:1006500032382058004132305620004F4B004A308B
:1006600036004D3834004A3034004A3136004A30C2
:100670003500454E4400464E20004A30320039399C
:10068000393A393939004D00480041375620004188
:100690003656202D2D2D0041365620005A3A200086
:1006A000593A2000583A200041355600413456202E
:1006B000004133562000413256200041315620007F
:1006C000413056200045525220004D313130004A11
:1006D00031300020746F6F206C6F6E672065787406
:1006E000727573696F6E2070726576656E7465647D
:1006F0000A004A31330020636F6C6420657874729D
:100700007573696F6E2070726576656E7465640AC4
:1007100000205A3A200020593A20004265642058AF
:100720003A200020706F736974696F6E206F757462
:10073000206F662072616E67652E0A003F50726FEF
:10074000626520002066697273740A005A005900BD
:100750005800486F6D652000203D3D3D3D00202044
:1007600020200042696C696E656172204C65766577
:100770006C696E6720477269643A0A20004A323514
:100780000028422961636B00284629726F6E74004D
:100790002852296967687400284C296566740052DC
:1007A000756E6E696E6720696E204452592D5255E0
:1007B0004E206D6F64650A00473239204175746FB1
:1007C00020426564204C6576656C696E670A003F5F
:1007D0002856296572626F7365204C6576656C20BA
:1007E000697320696D706C61757369626C6520282E
:1007F000302D34292E0A0046696C652064656C65CD
:100800007465643A0044656C6574696F6E20666156
:10081000696C65642C2046696C653A20006F7065D0
:100820006E206661696C65642C2046696C653A20AF
:10083000004D45414E4C5F4C3A002020506C616E9B
:100840006E657242756666657242797465733A20A8
:10085000002046726565204D656D6F72793A200003
:10086000436F6D70696C65643A204665622032356D
:1008700020323031390A00207C20417574686F7253
:100880003A20284A6F6C6C792C20787878787878C0
:1008900078782E434F2E290A00323031362D3132EE
:1008A0002D30362031323A303000204C61737420C4
:1008B000557064617465643A2000312E312E302DFC
:1008C0005243380A0056312E332E300A0020536F1F
:1008D0006674776172652052657365740A002057EB
:1008E00061746368646F672052657365740A0020E1
:1008F00042726F776E206F75742052657365740A4B
:10090000002045787465726E616C20526573657461
:100910000A00506F77657255700A004A3132004AFA
:1009200031370073746172740A004731205A2B32D8
:100930003000473931006572726F722077726974C6
:10094000696E6720746F2066696C650A004A3132EF
:10095000004A3033004A313800446F6E65207361BD
:1009600076696E672066696C652E0A004D32390023
:100970002042403A0020403A00202F0020423A0016
:10098000202F0020543A004A3033004A3034004AC5
:100990003037003F0A0020573A004A3036004A30CC
:1009A00039003F0A0020573A004A303800205A3AAE
:1009B0000020593A0020436F756E7420583A200089
:1009C00020453A00205A3A0020593A00583A00206F
:1009D000643A0020693A0020703A004B64200023FA
:1009E000646566696E65202044454641554C545FF8
:1009F000004B69200023646566696E6520204445CC
:100A00004641554C545F004B702000236465666975
:100A10006E65202044454641554C545F0050494482
:100A2000204175746F74756E652066696E697368B0
:100A30006564212050757420746865206C6173743E
:100A4000204B702C204B6920616E64204B64206326
:100A50006F6E7374616E74732066726F6D20626561
:100A60006C6F7720696E746F20436F6E666967756F
:100A7000726174696F6E2E680A0050494420417596
:100A8000746F74756E65206661696C65642120748D
:100A9000696D656F75740A00504944204175746F23
:100AA00074756E65206661696C6564212054656D9E
:100AB000706572617475726520746F6F2068696704
:100AC000680A00204B643A2000204B693A2000203D
:100AD0004B703A20000A20436C61737369632050A5
:100AE0004944200A002054753A2000204B753A20D2
:100AF00000206D61783A2000206D696E3A20002058
:100B0000643A200020626961733A20004A30310063
:100B10004A3030004A3135004A3233004B494C4CA0
:100B200045442E20005072696E7465722068616CB5
:100B30007465642E206B696C6C28292063616C6C71
:100B40006564210A00000020C100000000000000D0
:100B5000005761726E696E673A20486F6D696E6703
:100B60002042756D702044697669736F72203C2055
:100B7000310A000000A0400000A040000000410039
:100B800000D2430000CD430080E343FFFFFF24F485
:100B9000D43050C38E20C2A24017828B7011127ABB
:100BA000910D816CD90AA861E108C75866076151A7
:100BB00043061E4B5D05C145A7041A411104093DBA
:100BC0009803713931034036DB0265339102D4302A
:100BD0005402802E1D02632CEE01752AC501B02837
:100BE000A001102781018F2564012B244B01E022F5
:100BF0003401AC211F018D200D01801FFC00841EDB
:100C0000ED00971DDF00B81CD200E61BC600201BBC
:100C1000BC00641AB200B219A8000A19A0006A1830
:100C20009900D117910040178B00B516840031163A
:100C30007E00B31579003A157300C7146F0058147D
:100C40006A00EE1366008813630025135E00C71266
:100C50005B006C12570015125400C1115100701145
:100C60004F0021114B00D61049008D10470046104F
:100C7000440002104200C00F4000800F3E00420FAF
:100C80003C00060F3B00CB0E3800930E37005C0E85
:100C90003500270E3400F30D3200C10D3100900DE8
:100CA0003000600D2E00320D2D00050D2C00D90CEA
:100CB0002B00AE0C2900850C29005C0C2700350C9C
:100CC00027000E0C2600E80B2400C40B2400A00B08
:100CD00023007D0B23005A0B2100390B2100180B38
:100CE0002000F80A1F00D90A1E00BB0A1E009D0A38
:100CF0001D00800A1D00630A1C00470A1B002C0A05
:100D00001B00110A1A00F7091A00DD091900C409AD
:100D10001900AB091900920917007B091800630933
:100D200017004C09160036091600200916000A099A
:100D30001500F5081500E0081400CC081400B808E8
:100D40001400A4081400900813007D0812006B081A
:100D50001300580812004608120034081100230836
:100D600011001208110001081100F0071000E0073F
:100D70001000D0071000C0071000B0070F00A10737
:100D8000100091070E0083070F0074070F0065071E
:100D90000E0057070E0049070E003B070D002E07F7
:100DA0000E0020070D0013070D0006070D00F906C1
:100DB0000C00ED060D00E0060C00D4060C00C80681
:100DC0000C00BC060C00B0060C00A4060B00990633
:100DD0000C008D060B0082060B0077060B006C06DC
:100DE0000B0061060A0057060B004C060A0042067B
:100DF0000A0038060A002E060A0024060A001A060F
:100E00000A001006090007060A00FD050900F4059E
:100E10000900EB050900E2050900D9050900D00524
:100E20000900C7050900BE050900B5050800AD05A4
:100E30000800A50509009C050800940508008C051C
:100E40000800840508007C050800740508006C058E
:100E50000700650508005D050700560508004E05FA
:100E60000700470507004005080038050700310561
:100E700007002A050700230507001C0506001605C4
:100E800007000F0507000805060002050700FB0420
:100E90000600F5040700EE040600E8040600E2047C
:100EA0000700DB040600D5040600CF040600C904D1
:100EB0000600C3040600BD040600B7040600B10422
:100EC0000500AC040600A6040600A00405009B046F
:100ED000060095040500900406008A0405008504B8
:100EE0000500800406007A040500750405007004FE
:100EF00005006B04050066040500610405005C0440
:100F0000050057040500520405004D04050048047F
:100F10000500430405003E0404003A0405003504BE
:100F20000500300404002C040500270404002304F9
:100F300005001E0404001A04040016040500110430
:100F400004000D0404000904050004040400000466
:100F50000400FC030400F8030400F4030400F0039D
:100F60000400EC030400E8030400E4030400E003CD
:100F70000400DC030400D8030400D4030400D003FD
:100F80000400CC030400C8030300C503030024F4D9
:100F900004D9201BC40C5C0E9804C4095F026507C9
:100FA0007101F405F900FB04B30048048700C10394
:100FB00069005803550003034500BE023A0084024D
:100FC000310053022A002902250004022000E40116
:100FD0001C00C8011900AF0117009801140084011A
:100FE0001300710110006101100051010E00430156
:100FF0000D0036010B002B010B0020010B00150129
:1010000009000C01090003010800FB000800F300BF
:101010000800EB000700E4000600DE000600D80030
:101020000600D2000600CC000500C7000500C20083
:101030000500BD000400B9000400B5000400B100C3
:101040000400AD000400A9000400A5000300A200F4
:1010500003009F0004009B0003009800030095001C
:10106000020093000300900003008D0002008B003B
:101070000300880002008600020084000300810053
:1010800002007F0002007D0002007B000200790068
:101090000200770001007600020074000200720076
:1010A0000100710002006F0002006D0001006C0081
:1010B00002006A000100690002006700010066008A
:1010C000010065000100640002006200010061008F
:1010D0000100600001005F0002005D0001005C0093
:1010E00001005B0001005A00010059000100580096
:1010F0000100570001005600010055000100540096
:101100000100530000005300010052000100510093
:101110000100500001004F0001004E0000004E0091
:1011200001004D0001004C0001004B0000004B008D
:1011300001004A0001004900010048000000480089
:101140000100470001004600000046000100450084
:10115000000045000100440001004300000043007E
:101160000100420000004200010041000000410077
:101170000100400001003F0000003F0001003E0070
:1011800000003E0001003D0000003D0001003C0069
:1011900000003C0000003C0001003B0000003B0060
:1011A00001003A0000003A00010039000000390057
:1011B000010038000000380000003800010037004E
:1011C0000000370001003600000036000000360045
:1011D000010035000000350000003500010034003A
:1011E0000000340000003400010033000000330030
:1011F0000000330001003200000032000000320025
:101200000100310000003100000031000100300019
:10121000000030000000300001002F0000002F000F
:1012200000002F0000002F0001002E0000002E0003
:1012300000002E0001002D0000002D0000002D00F8
:1012400000002D0001002C0000002C0000002C00EC
:1012500000002C0001002B0000002B0000002B00E0
:1012600000002B0001002A0000002A0000002A00D4
:1012700000002A00010029000000290000002900C8
:1012800000002900000029000100280000002800BB
:1012900000002800000028000000280001002700AE
:1012A00000002700000027000000270000002700A2
:1012B0000100260000002600000026000000260095
:1012C0000000260001002500000025000000250088
:1012D000000025000000250000002500010024007A
:1012E000000024000000240000002400000024006E
:1012F0000100230000002300000023000000230061
:101300000000230000002300000023000100220051
:101310000000220000002200000022000000220045
:101320000000220001002100000021000000210037
:101330000000210000002100000021000000210029
:10134000010020000000200000002000000020001C
:10135000000020000000200000002000000020000D
:1013600001001F0000001F0000001F0000001F0000
:1013700000001F0000001F0000001F0001001E00F1
:1013800000001E0000001E0000001E0000004D387E
:101390003420582059205A2045006563686F3A0070
:1013A0000102102020080810204010204080020177
:1013B000020108040201010204081020408080405C
:1013C000201008040201800402018040201008045B
:1013D00002010804020101020408102040800102F9
:1013E00004081020408000002200250028002B0067
:1013F0002E003100340002010000050108010B013C
:1014000005050505070508080808020202020A0A80
:10141000080804040404010101010101010103039E
:10142000030303030303040707070C0C0C0C0C0C49
:101430000C0C0202020206060606060606060B0B46
:101440000B0B0B0B0B0B027C3C3E5E2B3D3F2F5BD3
:101450005D3B2C2A225C004572726F7220777269A4
:1014600074696E6720746F20454550524F4D210AB4
:1014700000206279746573290A0053657474696E7B
:1014800067732053746F726564202800454550527D
:101490004F4D20636865636B73756D206D69736D67
:1014A000617463680A00206279746573290A0020F8
:1014B00073746F7265642073657474696E677320EA
:1014C000726574726965766564202800486172648B
:1014D000636F6465642044656661756C7420536550
:1014E0007474696E6773204C6F616465640A0020D0
:1014F000204D383531205A005A2D50726F626520C8
:101500004F666673657420286D6D293A0A002020A5
:101510004D3230302044300A0020204D323030200F
:1015200044002044697361626C65640A0046696C1A
:10153000616D656E742073657474696E67733A00CB
:1015400020440020490020204D333034205000201A
:10155000440020490020204D3330312050005049B4
:10156000442073657474696E67733A0A0020204DD5
:10157000363636205A005A3220456E6473746F70C6
:101580002061646A7573746D656E7420286D6D29B1
:101590003A0A00205A0020590020204D32303620CF
:1015A0005800486F6D65206F666673657420286DFE
:1015B0006D290A00204500205A00205900205800BB
:1015C00020420020540020204D323035205300416D
:1015D0006476616E636564207661726961626C65D0
:1015E000733A20533D4D696E20666565647261747F
:1015F0006520286D6D2F73292C20543D4D696E2078
:1016000074726176656C20666565647261746520CC
:10161000286D6D2F73292C20423D6D696E696D75A3
:101620006D207365676D656E742074696D65202823
:101630006D73292C20583D6D6178696D756D20584A
:1016400059206A65726B20286D6D2F73292C20201C
:101650005A3D6D6178696D756D205A206A65726BAF
:1016600020286D6D2F73292C2020453D6D617869F0
:101670006D756D2045206A65726B20286D6D2F7326
:10168000290A0020540020520020204D32303420FE
:101690005000416363656C65726174696F6E733A83
:1016A00020503D7072696E74696E672C20523D72D5
:1016B00065747261637420616E6420543D7472615C
:1016C00076656C0A00204500205A00205900202031
:1016D0004D3230312058004D6178696D756D204173
:1016E0006363656C65726174696F6E20286D6D2F20
:1016F0007332293A0A00204500205A002059002060
:10170000204D3230332058004D6178696D756D2061
:1017100066656564726174657320286D6D2F732929
:101720003A0A00204500205A0020590020204D3957
:101730003220580053746570732070657220756E86
:1017400069743A0A007A5F70726F62653A20007AB3
:10175000325F6D696E3A20007A5F6D696E3A2000E3
:10176000795F6D696E3A2000785F6D696E3A20008E
:101770005265706F7274696E6720656E6473746F02
:1017800070207374617475730A004B494C4C454466
:101790002E20005072696E7465722073746F7070C1
:1017A00065642064756520746F206572726F727352
:1017B0002E2046697820746865206572726F7220E9
:1017C000616E6420757365204D39393920746F203E
:1017D000726573746172742E202854656D70657221
:1017E00061747572652069732072657365742E204B
:1017F0005365742069742061667465722072657324
:1018000074617274696E67290A004E6F204C696EAC
:1018100065204E756D626572207769746820636813
:1018200065636B73756D2C204C617374204C696E0D
:10183000653A20004E6F20436865636B73756D20B9
:1018400077697468206C696E65206E756D6265726B
:101850002C204C617374204C696E653A20006368DB
:1018600065636B73756D206D69736D617463682C4E
:10187000204C617374204C696E653A20004C696E8F
:1018800065204E756D626572206973206E6F7420DD
:101890004C617374204C696E65204E756D62657283
:1018A0002B312C204C617374204C696E653A2000FA
:1018B0004D313130004A3134004D3331004D383430
:1018C00020582059205A20450053442072656164F5
:1018D000206572726F720A00446F6E6520707269C3
:1018E0006E74696E672066696C650A0020496E76C1
:1018F000616C69642065787472756465722000009B
:1019000000CD430000CD430080E343000020C10030
:10191000000000000000006265640A002C2073795A
:101920007374656D2073746F7070656421204865F1
:10193000617465725F49443A200048656174696E5C
:1019400067206661696C65640048656174696E67EB
:10195000206661696C65640048656174696E672022
:101960006661696C65640048656174696E672066CC
:1019700061696C6564004A31300045002C014B0000
:1019800027015100220154001D015D001801630070
:10199000130169000E01720009017B00040184003B
:1019A000FF009000FA009C00F500A800F000B700CE
:1019B000EB00C600E600D500E100EA00DC00FC0018
:1019C000D7001401D2002C01CD004701C8006801E6
:1019D000C3008901BE00AD01B900D401B400010209
:1019E000AF003102AA006702A500A002A000DF023A
:1019F0009B00240396006F039100C0038C00140425
:101A0000870071048200D1047D0037057800A005AD
:101A100073000C066E007B066900ED0664005C072F
:101A20005F00CB075A003A085500A308500006098A
:101A30004B0063094600BA0941000B0A3C00530AF7
:101A40003700950A3200CE0A2D00010B28002E0B1C
:101A50002300520B1E00730B19008B0B1400A30BF9
:101A60000F00B50B0A00C40B0500D00B0000544852
:101A700045524D414C2052554E41574159005468F2
:101A800065726D616C2052756E61776179004A31C3
:101A900030004572723A204D415854454D50204215
:101AA0004544004572723A204D415854454D50000E
:101AB0004D415854454D5020747269676765726591
:101AC00064004572723A204D494E54454D502042B3
:101AD0004544004572723A204D494E54454D5000E0
:101AE0004D494E54454D5020747269676765726563
:101AF00064000300C90233002C013C0022014500B0
:101B0000180151000E015D0004016F00FA00810010
:101B1000F0009900E600B700DC00DB00D200050110
:101B2000C8003E01BE008001B400D101AA00370206
:101B3000A000B202960042038C00F0038200B604BB
:101B4000780094056E007E06640071075A005B08F9
:101B5000500030094600EA093C00830A3200FB0AC3
:101B60002800520B1E008E0B1400B80B0A00D60B77
:101B700000004D3234004D323320257300617574FE
:101B80006F25692E6700473930004731205A2D32C2
:101B90003000656E7175657565696E67202200534A
:101BA000442063617264206F6B0A006F70656E522F
:101BB0006F6F74206661696C65640A00766F6C757E
:101BC0006D652E696E6974206661696C65640A00D2
:101BD0004572726F723A00534420696E69742066D0
:101BE00061696C0A0000002100240027002A002DF2
:101BF000003000330001010000040107010A010068
:101C00000020002300260029002C002F00320000B5
:101C100001000003010601090100000A0B02090C82
:101C20000D0E080703040100000000000000000082
:101C300000000000000000000000000000000000A4
:101C40000000000000121110000000000000000061
:101C5000000000000000000000000000000000572D
:101C6000726974696E6720746F2066696C653A20CA
:101C7000004A3231006F70656E206661696C656480
:101C80002C2046696C653A20004A3231006F70653D
:101C90006E206661696C65642C2046696C653A202B
:101CA000004A32300046696C652073656C65637468
:101CB00065640A002053697A653A200046696C65BC
:101CC000206F70656E65643A20004A3231006F7093
:101CD000656E206661696C65642C2046696C653AA6
:101CE00020002066696C653A20004E6F7720002244
:101CF00020706F73002220706172656E743A22004A
:101D0000535542524F5554494E452043414C4C2067
:101D10007461726765743A22004B494C4C45442EFD
:101D20002000747279696E6720746F2063616C6C37
:101D3000207375622D67636F64652066696C6573D7
:101D4000207769746820746F6F206D616E79206CE4
:101D50006576656C732E204D4158206C6576656CF8
:101D60002069733A00526573656E643A20006F6BA8
:101D70000000E6B5C5B511241FBECFEFD1E2DEBF2E
:101D8000CDBF00E00CBF14E0A0E0B2E0E6E2F6E870
:101D900001E00BBF02C007900D92AA35B107D9F739
:101DA00025E1AAE5B4E001C01D92A63AB207E1F729
:101DB0001EE0CAEBDEE000E006C021970109802F9B
:101DC000FE010E9462C2C93BD10780E00807A9F763
:101DD0000E9499AF0C9402C30C9400002F923F9282
:101DE0004F925F926F927F928F929F92AF92BF922B
:101DF000CF92DF92EF92FF920F931F93CF93DF93D7
:101E0000CDB7DEB7CB55D1090FB6F894DEBF0FBE04
:101E1000CDBF00919A0820E6029F80011124065E42
:101E2000184F109383040093820480915D0680FF15
:101E30001AC0EAE9F3E184917F013FEFE31AF30A64
:101E4000811102C0780104C00E94BAA9F701F3CF42
:101E5000D7018D917D01882319F00E94BAA9F8CF8E
:101E60008AE00E94BAA9F80180810F5F1F4F80327B
:101E7000D1F3F0938304E09382048E34D1F4818112
:101E800090ED980F9A3010F08D3299F432969F01B0
:101E90002F5F3F4F808180538A3010F4F901F7CFD4
:101EA000DF0131968C918032D9F3B0938304A093F3
:101EB0008204E0908204F09083046AE270E0C7013B
:101EC0000E94B0C2009749F0FC01319682918032A5
:101ED00011F08A3211F41082F9CF97012F5F3F4F32
:101EE000F90180812F5F3F4F8032D1F380538A30D8
:101EF00010F00C94C72500E010E09AE0909FB0012C
:101F0000919F700D11248B01005311098191080FCD
:101F1000111D87FD1A95808180538A3078F3CF0197
:101F20003196DC012C912032D1F3F701208190937E
:101F30008104809380042D3411F40C94ED18243521
:101F400011F40C94AE25273411F00C94C7250530FC
:101F5000110509F4BEC650F40430110508F073C62B
:101F6000809151020230110538F144C10E31110542
:101F700011F40C94BA1768F40C31110509F421C757
:101F80000D31110511F00C94E1250E94D8460C94F6
:101F9000E1250B35110511F40C9489180C35110548
:101FA00011F40C948E180A35110511F00C94E125EA
:101FB00010927F040C94E125882311F40C94E12500
:101FC0000E941C4480916B048130B1F480917104B3
:101FD000882391F020E030E040EA51E46091C408A9
:101FE0007091C5088091C6089091C7080E9421BBD6
:101FF00087FF02C00C94E12588EB98E00E9434AD85
:102000000E94AFA980915D0683FD81C0C090C40885
:10201000D090C508E090C608F090C7082091FD1444
:102020003091FE144091FF1450910015C701B60184
:102030000E9421BB882309F46AC00E94613488236E
:1020400009F1C092FD14D092FE14E092FF14F092B8
:102050000015EAE9F3E184918F010F5F1F4F8111B1
:1020600003C0E8E5F2E004C00E94BAA9F801F3CF8A
:1020700084918F010F5F1F4F882321F00E94BAA91E
:10208000F801F6CFC090C408D090C508E090C6080B
:10209000F090C7082091FD143091FE144091FF1478
:1020A00050910015C701B6010E9466BF0E94ABC0E7
:1020B00097FF07C090958095709561957F4F8F4FE2
:1020C0009F4F69357240810591050CF1C092FD1456
:1020D000D092FE14E092FF14F0920015EAE9F3E1C9
:1020E00084918F010F5F1F4F811103C0E9E3F2E07C
:1020F00004C00E94BAA9F801F3CF84918F010F5F49
:102100001F4F882321F00E94BAA9F801F6CF209131
:10211000B8083091B9084091BA085091BB08609155
:10212000F1147091F2148091F3149091F4140E94C0
:1021300021BB81111DC02091BC083091BD08409188
:10214000BE085091BF086091F5147091F61480910B
:10215000F7149091F8140E9421BB811109C060917D
:1021600000027091010280910202909103023CC032
:102170008091220660910602709107028823F1F097
:10218000072E000C880B990B0E9427BB20910002A0
:102190003091010240910202509103020E9486BBDD
:1021A0002AE037ED43E25CE30E9486BB2FEF3FEF6E
:1021B0004FEF5FEF0E949D600C94E125072E000C0D
:1021C000880B990B0E9427BB2091000230910102DD
:1021D00040910202509103020E9486BB2AE037ED33
:1021E00043E25CE30E9486BB0E94458E0E943B8EC8
:1021F0000C94E125882311F40C94E1250E941C44E1
:1022000082E50E942B8F882309F436C10E94F98F42
:102210004B015C0120E030E0A9010E9421BB882332
:1022200009F456C12091F1143091F2144091F31445
:102230005091F4142CA73DA74EA75FA78091F514E9
:102240009091F614A091F714B091F81488AB99AB63
:10225000AAABBBAB2091B8083091B9084091BA083D
:102260005091BB082CAB3DAB4EAB5FAB8091BC0833
:102270009091BD08A091BE08B091BF0888AF99AFFA
:10228000AAAFBBAF6CA57DA58EA59FA50E9421BB63
:1022900081110DC028AD39AD4AAD5BAD68A979A9F2
:1022A0008AA99BA90E9421BB882309F411C1FF249C
:1022B000F3940230110509F0F12C20E030E0A9017F
:1022C000C501B4010E9421BB881F8827881FF8160A
:1022D00059F020E030E040E85FEB28962CAF3DAFAE
:1022E0004EAF5FAF28970AC080E090E0A0E8BFE360
:1022F00028968CAF9DAFAEAFBFAF28972CA53DA55C
:102300004EA55FA56CA97DA98EA99FA90E9466BF55
:1023100024966CAF7DAF8EAF9FAF249728A939A9C3
:102320004AA95BA968AD79AD8AAD9BAD0E9466BF35
:102330006B017C0124962CAD3DAD4EAD5FAD249775
:10234000CA01B9010E9486BB2B013C01A70196017D
:10235000C701B6010E9486BB9B01AC01C301B2015B
:102360000E9467BF0E94D2C16CAF7DAF8EAF9FAF9E
:1023700020E030E040E05FE30E9486BB2B013C019F
:10238000A5019401C501B4010E9486BB4B015C010B
:10239000A3019201C301B2010E9486BB9B01AC0163
:1023A000C501B4010E9466BF0E94D2C128962CAD1F
:1023B0003DAD4EAD5FAD28970E9486BB4B015C01E1
:1023C000C701B60190582CAD3DAD4EAD5FAD0E943A
:1023D00043C0A50194010E9486BB6B017C012CA91E
:1023E0003DA94EA95FA96CA57DA58EA59FA50E94BC
:1023F00067BF20E030E040E05FE30E9486BB9B01C6
:10240000AC01C701B6010E9467BF2CA53DA54EA532
:102410005FA50E9466BF6B017C0128AD39AD4AAD56
:102420005BAD68A979A98AA99BA90E9467BF20E032
:1024300030E040E05FE30E9486BB2B013C012CAD05
:102440003DAD4EAD5FAD24966CAD7DAD8EAD9FAD17
:1024500024970E9443C0A50194010E9486BB9B0162
:10246000AC01C301B2010E9467BF28A939A94AA9DA
:102470005BA90E9466BF14C089E40E942B8F882349
:1024800029F00E94F98F6B017C0103C0C12CD12C73
:1024900076018AE40E942B8F8823E9F00E94F98F4D
:1024A0006CA77DA78EA79FA720E030E0A901C701F8
:1024B000B6010E9421BB81111BC020E030E0A901C0
:1024C0006CA57DA58EA59FA50E9421BB811110C082
:1024D000E0EDFBE1A4C320E030E0A901C701B601B3
:1024E0000E9421BB8823A1F31CA61DA61EA61FA621
:1024F000A7019601C701B6010E9486BB4B015C0192
:102500002CA53DA54EA55FA5CA01B9010E9486BBB9
:102510009B01AC01C501B4010E9467BF0E94D2C1FA
:1025200068966CAF7DAF8EAF9FAF68972091F11426
:102530003091F2144091F3145091F41428AF39AF54
:102540004AAF5BAFC701B6010E9467BF28966CAF68
:102550007DAF8EAF9FAF28978091F5149091F614C0
:10256000A091F714B091F8148CAF9DAFAEAFBFAF90
:102570002CA53DA54EA55FA5BC01CD010E9467BF5E
:102580006C966CAF7DAF8EAF9FAF6C972091F914B6
:102590003091FA144091FB145091FC142C962CAFFE
:1025A0003DAF4EAF5FAF2C976091C0087091C108EE
:1025B0008091C2089091C3080E9466BF24966CAFB8
:1025C0007DAF8EAF9FAF2497D701C601B05888ABBF
:1025D00099ABAAABBBAB2CA53DA54EA55FA55058AA
:1025E0002CAB3DAB4EAB5FAB8091B8089091B90876
:1025F000A091BA08B091BB0860968CAF9DAFAEAF0A
:10260000BFAF609728962CAD3DAD4EAD5FAD28971E
:10261000BC01CD010E9466BF6B017C012091BC080A
:102620003091BD084091BE085091BF0864962CAF10
:102630003DAF4EAF5FAF64976C962CAD3DAD4EADE8
:102640005FAD6C9764966CAD7DAD8EAD9FAD6497BC
:102650000E9466BF4B015C01A701960168A979A998
:102660008AA99BA90E9486BB2B013C01A50194016C
:102670006CA97DA98EA99FA90E9486BB9B01AC0174
:10268000C301B2010E9467BF2B013C01A501940167
:1026900068A979A98AA99BA90E9486BB4B015C0104
:1026A000A70196016CA97DA98EA99FA90E9486BB4E
:1026B0009B01AC01C501B4010E9466BFA301920158
:1026C0000E94DABF6B017C0120E030E0A9010E948A
:1026D00021BB87FF0AC02BED3FE049EC50E4C70166
:1026E000B6010E9467BF6B017C010230110551F4F5
:1026F0002BED3FE049EC50E4C701B6010E9466BFF4
:102700006B017C0120E030E0A901C701B6010E9405
:1027100021BB811126C060962CAD3DAD4EAD5FADA5
:10272000609768AD79AD8AAD9BAD0E9421BB8111E8
:1027300018C064962CAD3DAD4EAD5FAD64976CADE9
:102740007DAD8EAD9FAD0E9421BB81110AC02BEDE6
:102750003FE049EC50E4C701B6010E9467BF6B013E
:102760007C01A701960168966CAD7DAD8EAD9FADE5
:1027700068970E9486BB9B01AC010E9486BB4B01FF
:102780005C0124962CAD3DAD4EAD5FAD2497CA01E2
:10279000B9010E9486BB9B01AC01C501B4010E9436
:1027A00067BF0E94D2C14B015C012FE632E143E8D2
:1027B0005AE30E9421BB87FD2BC2C501B4010E94D0
:1027C000DCC00E94B0C07DAF6CAF672B21F481E00C
:1027D00090E09DAF8CAF4090FD145090FE1460903F
:1027E000FF1470900015ACADBDADBD0180E090E070
:1027F0000E9425BB4B015C019B01AC01C701B601E6
:102800000E9443C068AF79AF8AAF9BAFA501940126
:1028100024966CAD7DAD8EAD9FAD24970E9443C0D4
:1028200064966CAF7DAF8EAF9FAF6497A3019201AA
:102830006091C4087091C5088091C6089091C7083E
:102840000E9466BFA50194010E9443C068966CAFC8
:102850007DAF8EAF9FAF689728AD39AD4AAD5BAD08
:10286000CA01B9010E9486BB20E030E040E05FE38E
:102870000E9486BB9B01AC0160E070E080E89FE3B2
:102880000E9466BF24966CAF7DAF8EAF9FAF24973A
:102890002C962CAD3DAD4EAD5FAD2C9729873A8778
:1028A0004B875C874D865E866F86788A60910602CC
:1028B00070910702072E000C880B990B0E9427BB12
:1028C00020910002309101024091020250910302D6
:1028D0000E9486BB2AE037ED43E25CE30E9486BBA0
:1028E0002C966CAF7DAF8EAF9FAF2C970E94674D3B
:1028F0009B01AC0128533F4F4F4F5F4F60962CAF69
:102900003DAF4EAF5FAF609748A859A86AA87BA8B3
:1029100022242394312CD12C4CAD5DAD42155305AE
:1029200009F432C10E94A2990E94674DDC01CB01DB
:1029300060962CAD3DAD4EAD5FAD6097821B930BA5
:10294000A40BB50BB7FD10C00E94674D9B01AC01F5
:1029500028533F4F4F4F5F4F60962CAF3DAF4EAF68
:102960005FAF60970E94635C81E08D0D893108F054
:1029700042C0D82E2CA93DA94EA95FA924966CADC2
:102980007DAD8EAD9FAD24970E9486BB4B015C014F
:102990009201A30168AD79AD8AAD9BAD0E9486BB63
:1029A000A50194010E9467BF7B018C019201A301E4
:1029B00024966CAD7DAD8EAD9FAD24970E9486BBF5
:1029C0004B015C012CA93DA94EA95FA968AD79AD69
:1029D0008AAD9BAD0E9486BB9B01AC01C501B401D1
:1029E0000E9466BF2B013C01C701D8018CAB9DAB97
:1029F000AEABBFAB4CC0B10180E090E00E9425BB04
:102A000028AD39AD4AAD5BAD0E9486BB4B015C0180
:102A10000E9440C06B017C01C501B4010E94C8C185
:102A20004B015C01A701960168A979A98AA99BA914
:102A30000E9486BB2B013C012CA53DA54EA55FA5A0
:102A4000C501B4010E9486BBA30192010E9467BF29
:102A50002B013C01A501940168A979A98AA99BA928
:102A60000E9486BB4B015C012CA53DA54EA55FA530
:102A7000C701B6010E9486BB9B01AC01C501B40130
:102A80000E9466BF6CAB7DAB8EAB9FABD12C92012D
:102A9000A30128966CAD7DAD8EAD9FAD28970E94A9
:102AA00067BF69837A838B839C832CA93DA94EA938
:102AB0005FA96C966CAD7DAD8EAD9FAD6C970E949D
:102AC00067BF6D837E838F83988764962CAD3DAD01
:102AD0004EAD5FAD649769857A858B859C850E9434
:102AE00067BF69877A878B879C8768962CAD3DADD9
:102AF0004EAD5FAD68976D857E858F8598890E9404
:102B000067BF6D877E878F87988BCE0101960E9465
:102B100034ADC0907A0489819A81AB81BC8188A34D
:102B200099A3AAA3BBA38D819E81AF81B8858CA3F5
:102B30009DA3AEA3BFA389859A85AB85BC8588A7D5
:102B400099A7AAA7BBA7AE01485D5F4FBE016C5D08
:102B50007F4FCE0180960E94A0832C96ECACFDACFA
:102B60000EAD1FAD2C979E01235F3F4FAE01485D18
:102B70005F4FBE016C5D7F4FCE0180960E943C3658
:102B80003FEF231A330AC8CEC0907A048091B80868
:102B90009091B908A091BA08B091BB0888A399A3F5
:102BA000AAA3BBA38091BC089091BD08A091BE08C8
:102BB000B091BF088CA39DA3AEA3BFA38091C00812
:102BC0009091C108A091C208B091C30888A799A7A5
:102BD000AAA7BBA7AE01485D5F4FBE016C5D7F4FEA
:102BE000CE0180960E94A0832C96ECACFDAC0EAD7D
:102BF0001FAD2C9724EC38E0AE01485D5F4FBE015D
:102C00006C5D7F4FCE0180960E943C360E943B8EC9
:102C10000E94AFA90C94E1250E94BAA9F801849101
:102C20008F010F5F1F4F8111F7CFE3E7F2E084912F
:102C30008F010F5F1F4F882311F40C94E1250E9430
:102C4000BAA9F801F4CF80E50E942B8F882371F098
:102C500080917704909178044AE050E060E070E061
:102C600001960E94A0B96B017C0103C0C12CD12C3C
:102C7000760183E50E942B8F882361F00E94F98FF3
:102C800020E030E04AE754E40E9486BB0E94B0C0D6
:102C90006B017C010E94499D0E94AFA98091AD0803
:102CA0009091AE08A091AF08B091B008C80ED91E9F
:102CB000EA1EFB1E0E94674DDC01CB018C199D09A9
:102CC000AE09BF09B7FD02C00C94E1250E94635C08
:102CD000F1CF8C9A809172048823C1F0E9E8F2E088
:102CE00084918F01882351F0082E000C990B0E94CB
:102CF000E76D0F5F1F4FF8018491F4CF8DE090E0F6
:102D00000E94E76D8AE090E00E94E76D8091710477
:102D1000882309F450C084E190E099A388A344E09B
:102D2000BE016F5F7F4FCE0180960E94587B44E0CA
:102D30006DE674E0CE0180960E94587B44E06AE51F
:102D400074E0CE0180960E94587B44E06EE574E00A
:102D5000CE0180960E94587B44E062E674E0CE018A
:102D600080960E94587B44E066E674E0CE0180962F
:102D70000E94587B40916D0450916E0460916F04E5
:102D8000709170044093A8115093A9116093AA11F7
:102D90007093AB1187EF90E10E94EF7381E0809315
:102DA0006C0480936B04109271048FEF90E0909309
:102DB0005C0680935B06669B02C00C94E4250C9431
:102DC000E1250E94499D80E00E9424450E94B8466A
:102DD00081E08093390288E50E942B8F082F89E5D6
:102DE0000E942B8F182F8AE50E942B8FF82E01113D
:102DF00005C0111105C081E08F2503C0111101C06C
:102E000080E08093040290E1E1EFF4E1A8EBB8E008
:102E100001900D929A95E1F7811104C0011102C051
:102E20001123D9F120E030E040E85FE3609116150E
:102E30007091171580911815909119150E9467BF10
:102E400020910A1530910B1540910C1550910D15DC
:102E50000E9467BF6093C0087093C1088093C20846
:102E60009093C3082091F9143091FA144091FB1407
:102E70005091FC140E948DC118167CF419821A829C
:102E80001B821C829E012F5F3F4F40EC58E065EF94
:102E900074E181EF94E10E94598D809104028111C7
:102EA00002C0002321F080E090E00E94D55A80917A
:102EB0000402811102C0112321F081E090E00E9400
:102EC000D55A80910402811102C0FF2021F082E0D6
:102ED00090E00E94D55A0E945B948091D411809317
:102EE00039020E949E4681E00E9424450E949A4F2A
:102EF000809106078A3A11F00C94E12580912C0FFD
:102F000081110C94E125F11006C080910402882300
:102F100011F40C94E12580E090E0A0E0B0E488A3F7
:102F200099A3AAA3BBA3AFE6CA2EA2E1DA2EA3E817
:102F3000EA2EAAE3FA2EC982DA82EB82FC829E0193
:102F4000205E3F4FAE014F5F5F4F65EF74E181EF51
:102F500094E10E94598D5F9A8A9AC092F914D09296
:102F6000FA14E092FB14F092FC1481E08093AC0818
:102F70000C94E12588E50E942B8F882319F00E948C
:102F8000F98F0DC020E030E0A9016091F11470913B
:102F9000F2148091F3149091F4140E9467BF68A317
:102FA00079A38AA39BA389E50E942B8F882319F01C
:102FB0000E94F98F0DC020E030E0A9016091F51466
:102FC0007091F6148091F7149091F8140E9467BFE5
:102FD0006B017C0169837A838B839C8320910E151E
:102FE00030910F15409110155091111568A179A1DC
:102FF0008AA19BA10E9466BF209102153091031502
:1030000040910415509105150E9466BF4B015C016B
:1030100029E630E040E251EC0E948DC187FF02C0FA
:103020000C94E12523E030E04DEC53E4C501B401FC
:103030000E9421BB181614F40C94E125209112155E
:10304000309113154091141550911515C701B60113
:103050000E9466BF20910615309107154091081512
:10306000509109150E9466BF6B017C0127E137EB87
:1030700041ED58EB0E948DC187FF02C00C94E12501
:1030800023E030E04DEC53E4C701B6010E9421BBC0
:10309000181614F40C94E1258090161590901715CD
:1030A000A0901815B0901915C0900A15D0900B1566
:1030B000E0900C15F0900D1520E030E0A901C5015D
:1030C000B4010E9467BFA70196010E9467BFA501D6
:1030D00094010E9466BFA70196010E9466BF6B0122
:1030E0007C0127E137EB41ED58EB0E948DC187FF52
:1030F00002C00C94E12523E030E843EE53E4C7011D
:10310000B6010E9421BB181614F40C94E1250C940E
:10311000F52581E080937F040C94E12585E40E94ED
:103120002B8FB82E811102C00E94499D75E8872E11
:1031300072E0972EE1EFCE2EE4E1DE2EF2E0EF2EEC
:10314000F5E1FF2E00E010E0A12CD4018D914D019E
:103150000E942B8F882339F1F601408051806280D4
:1031600073800E94F98FD6016D937D938D939C930C
:1031700013970330C1F0A30192010E9466BF9B0127
:10318000AC01F70160817181828193810E9467BFE8
:10319000D7016D937D938D939C931397C8010E94E3
:1031A000A08EAA24A3940F5F1F4FB4E0CB0ED11CB6
:1031B000E4E0EE0EF11C0430110539F6AA2019F0F6
:1031C0000E945B9406C0BB2021F08DEF94E10E9429
:1031D000E4A10E949A4F0C94E1250837110509F4E7
:1031E0000DC608F0CBC00D34110509F49BC308F0DF
:1031F00067C00A31110509F409C2C8F50531110586
:1032000009F4EEC1E0F40231110509F421C50431DD
:10321000110509F4A3C10131110511F00C94E12548
:103220005F988A9847989FB7F894809108018E7F9D
:10323000809308019FBF479812980C94E1250731AD
:10324000110509F4D7C108F4CFC10831110509F4FB
:10325000D7C10931110511F00C94E12581E080936B
:103260009C088093E51210922C0F0C94E1250F31ED
:10327000110509F460C278F40C31110509F411C28A
:1032800008F4D2C10E31110511F00C94E1250E9411
:103290000A4C0C94E1250A32110509F425C330F4D7
:1032A0000032110509F403C20C94E1250B34110519
:1032B00009F41AC30C34110509F41AC30C94E1255E
:1032C0000A36110509F489C4B8F50435110509F465
:1032D000BFC4E8F40235110509F4B3C408F0B4C45E
:1032E0000135110511F00C94E1250E9460950E94B2
:1032F000499D0E94305C10925C0610925B0668EE5D
:1033000073E080E090E00E944BA50C94E1250C3521
:10331000110509F4E8C430F40535110509F4CAC4EF
:103320000C94E1250836110509F400C3093611058E
:1033300009F42FC40C94E1250E36110509F424C3B9
:1033400050F40C36110509F403C408F46AC40E9451
:10335000BC520C94E1250037110509F4FDC308F4B3
:1033600026C30237110509F446C50737110511F0C8
:103370000C94E1250E944E860C94E1250F32F1E079
:103380001F0711F40C945C2308F067C00E3C110574
:1033900009F4A1C698F5083C110509F435C598F45F
:1033A0000C38110509F4DCC30E3B110509F412C4F5
:1033B0000937110511F00C94E12510923902109291
:1033C000D4110C94E1250B3C110509F488C560F477
:1033D000093C110511F00C94E12595E8E92E92E0E5
:1033E000F92E0EE616E062C50C3C110509F495C5F0
:1033F0000D3C110509F4FBC50C94E125023E1105B5
:1034000009F463C780F40C3D110509F438C70D3D7C
:10341000110509F441C7033D110511F00C94E12594
:10342000EAE9F3E195C60C3231E0130711F40C948C
:103430003C2230F40831114009F473C70C94E125A3
:103440000D3281E0180711F40C946B220E321140FA
:1034500011F40C94EB220C94E125053FA1E01A072E
:1034600011F40C94AD24B0F50239E1E01E0711F41B
:103470000C94662380F4003921E0120711F40C94B7
:103480005F2310F00C9462230033114011F40C946C
:103490006E220C94E125043A51E0150711F40C94C6
:1034A0006A2348F40A39114011F00C94E1250E9476
:1034B000754F0C94E1250C3AA1E01A0711F40C9415
:1034C000B523043F114011F00C94E1250E94A47D26
:1034D0000C94E1250335E3E01E07E1F178F4073FA2
:1034E00021E0120711F40C94B32410F40C94B024CE
:1034F0000A39124009F40DC60C94E125073E53E049
:10350000150711F40C94F22470F4003A134011F0F2
:103510000C94E12521E020932B0F40E060E00E9415
:1035200085A50C94E125083EE3E01E0711F40C94F8
:103530000025093E134011F00C94E1254AE956E0BC
:1035400025E08DECC82E8CECD82EED2C8DEBF82ED2
:103550000C945F25EAE9F3E10C94C224EEEAF2E070
:1035600084918F010F5F1F4F882321F00E94BAA919
:10357000F801F6CF1092B2111092B1118DE59FE0D3
:103580000E9436768BE1EDE5FFE0DE0115960190B5
:103590000D928A95E1F780915B0F90915C0F9C836F
:1035A0008B8385E493E09A83898340E050E0BE01F9
:1035B0006F5F7F4F83E094E00E94E171CE0101963E
:1035C0000E94285CEFE9F2E084918F010F5F1F4FAA
:1035D000882311F40C94E1250E94BAA9F801F4CFD4
:1035E0000E94AE9E0C94E12510922C0F10922D0F8C
:1035F0000C94E12540E061E00E9485A50C94E12552
:103600000E94C6A10E94FAA30C94E12580912D0F7F
:10361000882311F40C94E12583E50E942B8F8111FE
:103620000C9462260C94E12580912D0F811103C02A
:10363000E1EDF2E02AC0EFEBF2E084918F010F5F41
:103640001F4F882321F00E94BAA9F801F6CF60919C
:10365000A8117091A9118091AA119091AB114AE023
:103660000E94DAA98FE20E94BAA96091A411709118
:10367000A5118091A6119091A7114AE00E94DAA9A4
:103680008AE00E94BAA90C94E12584918F010F5F12
:103690001F4F882311F40C94E1250E94BAA9F80168
:1036A000F4CF40E060E00E9485A50C94E125809174
:1036B0002C0F81110E94499D00918004109181047A
:1036C00061E270E0C8010E94B0C2009719F08C015D
:1036D0000F5F1F4F80E50E942B8F882349F0FF2446
:1036E000F39480917704909178048017910708F003
:1036F000F12C80912D0F882311F40C94E1254F2D8E
:1037000061E0C8010E9485A583E50E942B8F882374
:1037100049F080917704909178048017910710F414
:103720000C9473260E94C6A1F1100C94E1250E940E
:10373000FAA30C94E1250E9431A37B018C0120E8BF
:1037400031E541E050E00E940FBFC9016DE671E034
:103750000E943BC24B015C01C801B70120E13EE081
:1037600040E050E00E940FBFCA01B90128E130E0FB
:1037700040E050E00E940FBF762E672EC62ED72E57
:103780006CE3262E312C412C512CC801B701A2012B
:1037900091010E940FBFF62EE72ECA01B901A201C6
:1037A00091010E940FBFCB018E010F5F1F4F81144B
:1037B0009104D1F0EF92FF927F936F936F927F927B
:1037C000BF92AF929F928F928AE093E09F938F93E4
:1037D0001F930F930E94F3BA0FB6F894DEBF0FBE8B
:1037E000CDBFEAE9F3E145C0A114B10489F0EF923D
:1037F000FF927F936F936F927F92BF92AF928AEF07
:1038000092E09F938F931F930F930E94F3BAE4CF9C
:10381000CD2879F0EF92FF927F936F936F927F9212
:103820008EEE92E09F938F931F930F930E94F3BAB3
:10383000D3CF892B69F0EF92FF927F936F9386EE3F
:1038400092E09F938F931F930F930E94F3BAC4CF7C
:10385000EF92FF9282EE92E09F938F931F930F93CC
:103860000E94F3BA0F900F900F900F900F900F904F
:10387000B8CF84917F01BFEFEB1AFB0A882321F0B8
:103880000E94BAA9F701F5CFB8018EE193E00E943A
:10389000C1A98AE00E94BAA980917E06882311F40A
:1038A0000C94E12510927E066091B80D7091B90DCF
:1038B000072E000C880B990B0E9427BB2091130246
:1038C0003091140240911502509116020E948DC150
:1038D000181614F00C94E1251092B90D1092B80D41
:1038E0000E947E6D0C94E1250E94FAA30C94E125C0
:1038F00080911C0F90911D0F019711F00C94E12500
:1039000082E090E090931D0F80931C0F0E94674D02
:103910006093260F7093270F8093280F9093290FA1
:103920000C94E1250E94CE6D0C94E12588E690E090
:103930000E946D8F81110C94E12580915D0683FFBB
:1039400002C00C94E12583E50E942B8F8823C1F0EF
:103950000E94F98F0E94ABC07093B90D6093B80DAF
:103960000E947E6D0E94F98F20E030E04AEA52E426
:103970000E9421BB181614F00E94CE6D0E94F98F90
:103980000E947D340C94E1258EE40E942B8F8823C5
:1039900011F40C94E1250E94EE8F609373047093F0
:1039A000740480937504909376040C94E12583E568
:1039B0000E942B8F882319F00E943E8F01C080E067
:1039C00080935D06EAE9F3E184918F010F5F1F4F59
:1039D000811103C0E9E3F3E004C00E94BAA9F80131
:1039E000F3CF84918F010F5F1F4F882321F00E9436
:1039F000BAA9F801F6CF80915D06811103C0E5E315
:103A0000F3E034C05BE2C52E53E0D52EE12CF12C5F
:103A100020E080915D0690E00E2C02C09595879580
:103A20000A94E2F780FF17C0BB24B394B20E22239E
:103A300019F08CE20E94BAA9F60185919491FC01DB
:103A400084918F010F5F1F4F882321F00E94BAA934
:103A5000F801F6CF2B2DEFEFEE1AFE0AF2E0CF0EB3
:103A6000D11C35E0E316F104A1F66DC084918F01FD
:103A70000F5F1F4F882309F466C00E94BAA9F8019E
:103A8000F5CF80E20E94BAA98AE50E942B8F882395
:103A900009F49BC70E94F98F6B017C0120E030E0A4
:103AA00040EA51EC0E948DC187FD7FC720E030E0E5
:103AB00040EA51E4C701B6010E9421BB18160CF47C
:103AC00074C7209102073091030740910407509179
:103AD0000507C701B6010E9466BF2B013C019AE9A8
:103AE000A92E96E0B92E15E0450100E0A301920150
:103AF000F40160817181828193810E9467BFD4014A
:103B00006D937D938D939D934D010F5F053071F7FC
:103B10001150B4E1AB0EB11C1111E6CFC0920207F7
:103B2000D0920307E0920407F09205070E942F87C6
:103B30006091020770910307809104079091050737
:103B400042E00E9491AA8AE00E94BAA90C94E12561
:103B5000109208020C94E12580E493E00E943E5C00
:103B600080915D0683FF02C00C94E12583E50E94ED
:103B70002B8F882311F40C94E1250E94F98F0E9469
:103B8000ABC070935F1260935E120E9410950C940C
:103B9000E12589E690E00E946D8F81110C94D92671
:103BA00080912C0F811103C081E080931707E9E415
:103BB000F3E084918F010F5F1F4F882321F00E9453
:103BC000BAA9F801F6CF0E9459508AE00E94BAA91A
:103BD0000C94D9260E94E150F4C783E50E942B8FF4
:103BE000882321F00E94D48F8C0102C003EB10E0E7
:103BF00080E50E942B8F882319F00E94D48F02C089
:103C000080E090E098010F3F110519F010F02FEFC0
:103C100030E0892B09F0D5C730935C0620935B0612
:103C2000D0C780E50E942B8F811105C010925C06E1
:103C300010925B06C6C70E94D48F892B09F0C1C7BA
:103C4000F5CF10927E04BDC781E080937E04B9C792
:103C500083E50E942B8F882399F00E94F98F20E042
:103C600030E04AE754E40E9486BB0E94B0C06093F3
:103C70003A0270933B0280933C0290933D02A1C7AD
:103C800088E50E942B8F81110C94852689E50E947E
:103C90002B8F81110C9485268AE50E942B8F811130
:103CA0000C94852685E40E942B8F81110C94852627
:103CB0000C94A92683E50E942B8F882309F481C7E1
:103CC0000E94F98F20E030E04AE754E40E9486BB6E
:103CD0000E94B0C06093B1087093B2088093B3089B
:103CE0009093B4086EC735E8C32E32E0D32E43ED6F
:103CF000E42E42E1F42E10E0D6018D916D010E9478
:103D00002B8F882309F46DC0133009F063C00E9423
:103D1000F98F4B015C0120E030E040EA51E40E9461
:103D200021BB87FF4EC0A50194016091DF12709105
:103D3000E0128091E1129091E2120E9443C02B01A7
:103D40003C019B01AC0160912F067091300680917F
:103D50003106909132060E9486BB60932F067093C5
:103D600030068093310690933206A3019201609150
:103D70004B0670914C0680914D0690914E060E9424
:103D800086BB60934B0670934C0680934D069093D0
:103D90004E0660916A0670916B0680916C06909158
:103DA0006D060E9425BBA30192010E9486BB0E9462
:103DB000B0C060936A0670936B0680936C06909314
:103DC0006D068092DF129092E012A092E112B09202
:103DD000E21207C00E94F98FF7016083718382832A
:103DE00093831F5FF4E0EF0EF11C143009F084CFD1
:103DF0000E94CB35E6C60E949A4FE3C681E08093CD
:103E000039028093D411DDC688EC90E00E946D8F5A
:103E10008111D7C684E40E942B8F882309F4D1C670
:103E20000E94F98F6B017C0111E020E030E0A901D4
:103E30000E9421BB811101C010E01093D51120E038
:103E400030E0A901C701B6010E9421BB882359F1C6
:103E50000091790410E00E94F98F000F111F000FEC
:103E6000111FF801EB5BFD4F6083718382839383A5
:103E700020E030E0A90160914502709146028091F6
:103E80004702909148020E9421BB81110CC080E042
:103E900090E0A0EEBFE38093450290934602A0938A
:103EA0004702B09348020E9452608BC6D7018D91A1
:103EB0007D010E942B8F882349F00E94F98F0E9478
:103EC000B0C0F80160837183828393830C5F1F4FBE
:103ED000F6E00E371F0751F70E94AD3472C605E8B1
:103EE000E02E02E0F02E0FE316E08FE4C82E86E00D
:103EF000D82ED7018D917D010E942B8F882339F018
:103F00000E94F98FF80160837183828393830C5F31
:103F10001F4FC016D10669F754C683E50E942B8F48
:103F20008823D9F00E94F98FAB01BC01409337067A
:103F3000509338066093390670933A0640933306DF
:103F400050933406609335067093360686EA93E004
:103F50000E9402AB8AE00E94BAA980E50E942B8FE2
:103F6000882399F00E94F98FAB01BC01409337067A
:103F7000509338066093390670933A0689E893E0C7
:103F80000E9402AB8AE00E94BAA982E50E942B8FB0
:103F9000882399F00E94F98FAB01BC0140933B0646
:103FA00050933C0660933D0670933E068AE693E08C
:103FB0000E9402AB8AE00E94BAA984E50E942B8F7E
:103FC000882309F4FEC50E94F98FAB01BC01409320
:103FD00033065093340660933506709336068CE4AE
:103FE00093E00E9402AB8AE00E94BAA9EAC583E589
:103FF0000E942B8F882351F00E94F98F60935706FF
:10400000709358068093590690935A0684E50E944F
:104010002B8F882351F00E94F98F60935306709381
:104020005406809355069093560682E40E942B8F87
:10403000882399F080917704909178044AE050E0C9
:1040400060E070E001960E94A0B960934F06709303
:104050005006809351069093520688E50E942B8F5C
:10406000882351F00E94F98F6093230670932406F1
:10407000809325069093260689E50E942B8F88233E
:1040800051F00E94F98F6093270670932806809361
:10409000290690932A068AE50E942B8F882351F0E7
:1040A0000E94F98F60932B0670932C0680932D0647
:1040B00090932E0685E40E942B8F882309F481C5F6
:1040C0000E94F98F60932F0670933006809331061B
:1040D0009093320676C515E8E12E12E0F12E00E04D
:1040E00010E0D7018D917D010E942B8F882339F03C
:1040F0000E94F98FAB01BC01C8010E94EF8E0F5FD7
:104100001F4F0330110569F70E945B940E949A4F7C
:1041100058C58AE50E942B8F882351F00E94F98FA1
:104120006093D6117093D7118093D8119093D911C1
:104130004091D6115091D7116091D8117091D91139
:104140008EEC93E00E9402AB8AE00E94BAA939C5C6
:1041500084918F010F5F1F4F882321F00E94BAA91D
:10416000F801F6CF83E50E942B8F882321F00E946F
:10417000AA8F80930502E8E1F4E084918F010F5F3C
:104180001F4F882321F00E94BAA9F801F6CF809131
:104190000502882319F0E0E1F4E002C0E4E1F4E074
:1041A00084918F010F5F1F4F811103C0E8E0F4E09D
:1041B00004C00E94BAA9F801F3CF84918F010F5F68
:1041C0001F4F882321F00E94BAA9F801F6CF409131
:1041D000790250917A0260917B0270917C0286E0B4
:1041E00094E00E9402AB40917D0250917E0260916A
:1041F0007F027091800283E094E00E9402AB4091C4
:10420000810250918202609183027091840280E069
:1042100094E00E9402ABE8EFF3E084918F010F5F1E
:104220001F4F882321F00E94BAA9F801F6CF4091D0
:104230006D0250916E0260916F027091700286EF74
:1042400093E00E9402AB4091710250917202609122
:1042500073027091740283EF93E00E9402AB40916D
:10426000750250917602609177027091780280EF2A
:1042700093E00E9402AB8AE00E94BAA9A2C483E53F
:104280000E942B8F882309F49CC40E94E18F909395
:1042900007028093060295C48DED90E00E946D8F19
:1042A00081118FC483E50E942B8F882309F489C470
:1042B0000091790410E00E94E18F000F111FF801B6
:1042C000E75FFD4F918380837CC480E50E942B8F44
:1042D000882309F476C40E94E18F8C0183E50E9453
:1042E0002B8F882321F00E94E18F7C0103C0EE24F4
:1042F000EA94FE2CC7010196039708F062C417FDEB
:1043000060C4E9E8F2E08FED92E098013327419133
:1043100051914217530709F454C48E179F07B9F7F8
:1043200020C580E50E942B8F882309F44AC40E948F
:10433000E18F7C01892B19F0E0EDFBE181C083E581
:104340000E942B8F811103C0EAE9F3E108C00E94AB
:10435000E18FBC018BEF9EE00E94D86B32C4849148
:104360008F010F5F1F4F882321F00E94BAA9F80127
:10437000F6CF60E070E081E494E00E947AAA809138
:10438000FD0E28E532E06901C81AD10887FDD394F3
:10439000CC0CDD1CCC0CDD1C0D2C000CEE08FF0839
:1043A0008091FC0E28E830E04901881A910887FDC9
:1043B0009394880C991C880C991C092C000CAA0851
:1043C000BB088091FB0E8F3FC1F090E0FC01EE0F27
:1043D000FF1F8E0F9F1FFC01E257F14F2181328199
:1043E00063E0220F331F6A95E1F774E03695279555
:1043F0007A95E1F72E5F3F4F02C020E030E02F5F5B
:104400003F4FC901330FAA0BBB0B9C01AD0128190B
:1044100039094A095B09A4EBB0E00E944DBFA7012E
:104420009601281939094A095B090E9431BFB9016F
:104430008EE394E00E947AAA8AE00E94BAA9C1C3DE
:1044400084918F010F5F1F4F882321F00E94BAA92A
:10445000F801F6CFB70187E394E00E947AAAE8E278
:10446000F4E084918F010F5F1F4F882309F4A9C3E3
:104470000E94BAA9F801F5CF83E50E942B8F88230B
:1044800021F00E94E18F8C0102C00EE610E080E571
:104490000E942B8F882319F00E94E18F02C088EEC2
:1044A00093E06C01990FEE08FF081016110674F4E2
:1044B00040E050E0BA01C8010E94EC6DC701B601AE
:1044C0000E944BA58FE10E94CC947BC3C701B6012B
:1044D0000E944BA576C30E94155973C380E50E94C4
:1044E0002B8F882351F00E94F98F60935A027093AA
:1044F0005B0280935C0290935D0289E40E942B8FA3
:10450000882381F00E94F98F25EB3EEF46E15DE3C1
:104510000E9486BB609356027093570280935802A4
:104520009093590284E40E942B8F882381F00E948B
:10453000F98F25EB3EEF46E15DE30E9443C06093B7
:104540005202709353028093540290935502EAE909
:10455000F3E184918F010F5F1F4F882321F00E94A8
:10456000BAA9F801F6CF40915A0250915B026091CE
:104570005C0270915D0281E594E00E9402AB25EB44
:104580003EEF46E15DE360915602709157028091E3
:104590005802909159020E9443C0AB01BC018DE4C6
:1045A00094E00E9402AB25EB3EEF46E15DE36091B3
:1045B00052027091530280915402909155020E94D0
:1045C00086BBAB01BC0189E494E00E9402AB8AE0A7
:1045D0000E94BAA9F6C283E50E942B8F082F882378
:1045E000A1F00E94F98F60931B0270931C028093CC
:1045F0001D0290931E0211E020E030E0A9010E940C
:1046000021BB811110E010937F0680E50E942B8F63
:10461000182F8823A9F020E030E0A90160911B0247
:1046200070911C0280911D0290911E020E9421BB7C
:10463000882319F00E94AA8F182F10937F06C1C2F9
:104640000111BFC2EAE9F3E184918F010F5F1F4FAF
:10465000882321F00E94BAA9F801F6CF80917F0645
:10466000882319F066E274E002C067E973E08AE625
:1046700094E00E94C1A920E030E040E05FE3609157
:104680001B0270911C0280911D0290911E020E94DB
:1046900067BF0E94ABC089E594E00E947AAAE5E575
:1046A000F4E084918F010F5F1F4F882309F489C2C2
:1046B0000E94BAA9F801F5CF0E94D65482C20E9486
:1046C000499D7FC281E00E9434457BC280E00E9408
:1046D000344577C283E50E942B8F882321F00E9406
:1046E000AA8F0E9424458AE50E942B8F882309F413
:1046F00068C20E94F98F6B017C0160931E06709363
:104700001F0680932006909321062DEB37E346E8A1
:1047100055EB0E948DC1181654F42DEB37E346E893
:1047200055E3C701B6010E9421BB87FD09C0A7015F
:10473000960160E070E080E89FE30E9443C003C000
:1047400060E070E0CB016093DA117093DB1180932D
:10475000DC119093DD1180912206882309F431C287
:1047600082E090E00E949F632CC2E5EBF8E0F9AF95
:10477000E8AF2EE0C22E25E1D22E32E0232E35E125
:10478000332E21EF34E13DAB2CAB49E752E059AB7E
:1047900048AB8DE692E09DA78CA745E4E42E4BE064
:1047A000F42E00E010E0A8ADB9AD8D91B9AFA8AF7F
:1047B000882309F492C0ECA9FDA980809180A28091
:1047C000B380ACA5BDA52D913D914D915C91E8A91B
:1047D000F9A960817181828193810E9467BF20E085
:1047E00030E040E05FE30E9486BB9B01AC01C50165
:1047F000B4010E948DC1181654F4F701859195916A
:10480000A591B491E82F792F6A2F8B2F04C0E0E097
:1048100070E060E080E0D6014D905D906D907C90FE
:104820002E2F372F462F582FC301B2010E9467BF8A
:10483000F10120813181428153810E9467BF9B0138
:10484000AC01C501B4010E9466BF4B015C0120E0D0
:1048500030E040EA51EC0E948DC1181654F420E07B
:1048600030E040EA51E4C501B4010E9421BB87FD5C
:1048700003C0E0EDFBE10FC0A5019401C301B2014B
:104880000E9466BFAB01BC01C8010E94EF8E25C02B
:104890000E94BAA9F80184918F010F5F1F4F811107
:1048A000F7CFEDE7F4E084918F010F5F1F4F88236E
:1048B00021F00E94BAA9F801F6CF88E290E09A832D
:1048C000898388EC90E099A388A3BE016F5F7F4F36
:1048D000CE0180960E9486A474C10F5F1F4FF4E042
:1048E000CF0ED11C24E0220E311C4CA95DA94C5FD7
:1048F0005F4F5DAB4CAB88A999A9049699AB88AB87
:10490000ACA5BDA51496BDA7ACA7B4E0EB0EF11CF9
:104910000330110509F047CF0E945B940E949A4F23
:1049200083E992E099A388A308EC10E01A83098335
:10493000BE01605E7F4FCE0101960E9486A48AEB85
:1049400092E099A388A31A830983BE01605E7F4F1A
:10495000CE0101960E9486A434C10E94817B31C1A0
:104960000E94A0872EC183E50E942B8F882321F00F
:104970000E94AA8F91E089270E941A8922C10E9471
:10498000BAA9F80184918F010F5F1F4F8111F7CFF2
:10499000EEEAF4E084918F010F5F1F4F882309F442
:1049A00070C80E94BAA9F801F5CF6CEE7FEF86EAD5
:1049B00094E00E947AAA80E20E94BAA964E170E0C1
:1049C0008EE994E00E947AAABEC8409102075091F5
:1049D000030760910407709105078BE994E00E943A
:1049E00002ABB1C881E08093510283E50E942B8F16
:1049F000882309F4B3C10E94AA8F8111E2C0AEC11D
:104A000083E50E942B8F882319F00E94F98F04C040
:104A100060E070E080E690EC4AE956E025E0A0E036
:104A2000B0E0FA01EA0FFB1F6083718382839383F6
:104A30001496A431B105A9F721504C5E5F4F2111A6
:104A4000EECF8EE590E09093970680939606909334
:104A500099068093980688E090E09093930680935F
:104A6000920681E190E0909395068093940680E011
:104A700090E0A0E6B1EC8093020790930307A09327
:104A80000407B09305078093FE069093FF06A0935A
:104A90000007B09301078AEA809306070E94728795
:104AA0000E942F87EDEFF4E084918F010F5F1F4F7D
:104AB000882309F486C00E94BAA9F801F5CF80E0E6
:104AC00090E0FA01E80FF91FC082D182E282F382FE
:104AD000049684319105A9F721504C5E5F4F211156
:104AE000EECF8EE590E09093970680939606909394
:104AF00099068093980688E090E0909393068093BF
:104B0000920681E190E0909395068093940680E070
:104B100090E0A0E6B1EC8093020790930307A09386
:104B20000407B09305078093FE069093FF06A093B9
:104B30000007B093010785E5809306070E947287FE
:104B40000E942F87ECEDF4E084918F010F5F1F4FDF
:104B50008823B9F10E94BAA9F801F6CF00937A042C
:104B6000EAE9F3E184917F012FEFE21AF20A882348
:104B700021F00E94BAA9F701F5CFB801772787EB9A
:104B800094E00E947AAA8AE00E94BAA91AC0EAE9CF
:104B9000F3E184918F010F5F1F4F882321F00E9462
:104BA000BAA9F801F6CF609182047091830489EC70
:104BB00094E00E94C1A982E20E94BAA98AE00E9400
:104BC000BAA90E94C6ADF5C081E080936A048EE761
:104BD00098EA9093300280932F0280916A008F7C34
:104BE000806180936A00EE9AECCF83E50E942B8F60
:104BF000882309F465C00E94AA8F182F80E00E94C4
:104C000024450E94B84621E030E0412FBE016F5F8D
:104C10007F4FCE0180960E948B456B017C01E7E9B6
:104C2000F2E084918F010F5F1F4F882321F00E94D3
:104C3000BAA9F801F6CF27E137EB41ED58E368A1B7
:104C400079A18AA19BA10E9467BF42E00E9491AA1C
:104C5000E2E9F2E084918F010F5F1F4F882321F07A
:104C60000E94BAA9F801F6CF27E137EB41ED58E3EE
:104C700069817A818B819C810E9467BF42E00E949A
:104C800091AAEDE8F2E084918F010F5F1F4F882316
:104C900021F00E94BAA9F801F6CF27E137EB41EDE8
:104CA00058E3C701B6010E9467BF42E00E9491AA83
:104CB0008AE00E94BAA90E949E460E949A4F81CF24
:104CC00011E09CCF0E94EE8FAB01BC014093A81174
:104CD0005093A9116093AA117093AB1187EF90E1E3
:104CE0000E94EF736ECF0E94EE8FAB01BC01409328
:104CF000A8115093A9116093AA117093AB1187EF7B
:104D000090E10E94EF730C94921B0E94499D88E5EC
:104D10000E942B8F81115F9A89E50E942B8F882337
:104D200011F08A9A479A8AE50E942B8F882349F0CE
:104D30009FB7F894809108018160809308019FBF1C
:104D4000479A85E40E942B8F882309F43ACF129A60
:104D500038CF0E94499D0E94305C33CF0E94E2AD63
:104D600030CF0E94499DD02E60E0802F0E940FA579
:104D70003FEFE316F30659F4802F0E94B9A431E007
:104D800020E0892B09F030E0032F122F05C0EA94B0
:104D9000EF2861F401E010E08D2D0E94B9A4801786
:104DA000910709F40ECF0E94635CF6CF00E010E09B
:104DB000F3CFC55ADF4F0FB6F894DEBF0FBECDBF9D
:104DC000DF91CF911F910F91FF90EF90DF90CF90E7
:104DD000BF90AF909F908F907F906F905F904F901B
:104DE0003F902F9008952F923F924F925F926F9233
:104DF0007F928F929F92AF92BF92CF92DF92EF926B
:104E0000FF920F931F93CF93DF93CDB7DEB7A09799
:104E10000FB6F894DEBF0FBECDBF80911C069091F7
:104E20001D06039764F554E0252E312C8E010F5F8B
:104E30001F4F60E6462E6AEE562E612C712C8CE6D2
:104E40009EE00E943D5A18161906CCF480911C066B
:104E500090911D0604979CF48CE69EE00E94015AF6
:104E600020911706309118068A3019F08D3009F01C
:104E700065C02115310509F06EC0109219068091A8
:104E80001C0690911D06009791F0019790931D06C6
:104E900080931C0680910F0690911006019664E0A5
:104EA00070E00E944FC29093100680930F06C0904E
:104EB000BA0DD090BB0DE090BC0DF090BD0D20E080
:104EC00030E040EA50E4C701B6010E9421BB87FFF1
:104ED00002C00C94063320E030E04CE853E4C701F4
:104EE000B6010E948DC1181614F40C9406338091FB
:104EF0001A0690911B0689349E4E10F40C941133BF
:104F000010921B0610921A06EFECF6E084918F01C6
:104F1000882351F0082E000C990B0E94E76D0F5F5B
:104F20001F4FF8018491F4CF8DE090E00E94E76D6F
:104F30008AE090E00E94E76D0C9411338A3329F4E3
:104F400090911906992309F494CF2F35310514F463
:104F50000C94FC2F8ECF809115069091160640E69A
:104F6000942E989E5001999EB00C1124C501815732
:104F70009B4F7C01FC01E20FF31F10828091190608
:104F800081110C94F62F109219066EE470E0C7019F
:104F90000E94B0C2009709F452C090938E0480938F
:104FA0008D048E199F098A0D9B1D4AE050E060E038
:104FB00070E080579B4F0E9475B8609373047093A4
:104FC00074048093750490937604C0909C15D090DF
:104FD0009D15E0909E15F0909F15EFEFCE1ADE0A1A
:104FE000EE0AFE0AA0901506B09016066C157D0517
:104FF0008E059F0511F40C941F309A9CC0019B9C58
:10500000900D11246AEC76E081579B4F0E94D9BA2B
:10501000892B11F00C941F30E5ECF6E084918F01A0
:10502000882351F0082E000C990B0E94E76D0F5F4A
:105030001F4FF8018491F4CF0E9458A917C06AE26B
:1050400070E0C7010E94B0C2892B29F1E5ECF6E0BF
:1050500084918F01882351F0082E000C990B0E9437
:10506000E76D0F5F1F4FF8018491F4CF109218067F
:105070001092170604CF8091730490917404A0914C
:105080007504B091760480939C1590939D15A09320
:105090009E15B0939F15809115069091160620E6F7
:1050A000289F7001299FF00C1124C70181579B4F45
:1050B0005C0161E470E00E94B0C2009709F481C70E
:1050C00090938E0480938D048A199B098E0D9F1DE9
:1050D00060E070E080579B4F0E9422B70E94ABC0F7
:1050E000CB01770FAA0BBB0B8332910508F069C780
:1050F000FC018827EE58FF4F8F4F0C9462C2E0EC02
:10510000F6E084917F01882359F0082E000C990B5A
:105110000E94E76D9FEFE91AF90AF7018491F3CF36
:1051200020E030E040E05FE36091BA0D7091BB0D8C
:105130008091BC0D9091BD0D1FC0EBEBF6E084910A
:105140007F01882359F0082E000C990B0E94E76D0F
:10515000FFEFEF1AFF0AF7018491F3CF6091B80DCA
:105160007091B90D072E000C880B990B0E9427BB7C
:1051700020E030E040E05FE30E9467BF0E94ABC0E8
:105180007A836983C8010E9467A9BC018CE69EE00E
:105190000E9450718DE090E00E94E76D8AE090E0FF
:1051A0000E94E76D0EC7E6EBF6E084917F0188234D
:1051B00059F0082E000C990B0E94E76DFFEFEF1AD3
:1051C000FF0AF7018491F3CF20E030E040E05FE395
:1051D00060915A1270915B1280915C1290915D12F5
:1051E000CBCFE1EBF6E084917F01882359F0082EC4
:1051F000000C990B0E94E76DFFEFEF1AFF0AF70111
:105200008491F3CF60915E1270915F12ABCF2091C9
:105210005B0630915C0644E6429FC001439F900DBF
:1052200011246FEF70E00E943BC27B01FFEFEF1A89
:10523000FF0A25E6E216F10418F0B4E6EB2EF12C95
:10524000ECEAF6E084915F01882359F0082E000C07
:10525000990B0E94E76D8FEFA81AB80AF5018491A7
:10526000F3CFB70180E090E059C3E8EAF6E084911B
:105270007F01882359F0082E000C990B0E94E76DDE
:10528000FFEFEF1AFF0AF7018491F3CF80E290E07D
:105290000E94E76DE4EAF6E084917F01882359F0EB
:1052A000082E000C990B0E94E76DFFEFEF1AFF0A22
:1052B000F7018491F3CF6091F1147091F214809111
:1052C000F3149091F4140E94D1A080E290E00E9427
:1052D000E76DE0EAF6E084917F01882359F0082E1B
:1052E000000C990B0E94E76DFFEFEF1AFF0AF70120
:1052F0008491F3CF6091F5147091F6148091F714B6
:105300009091F8140E94D1A080E290E00E94E76D95
:10531000ECE9F6E084917F01882359F0082E000C17
:10532000990B0E94E76DFFEFEF1AFF0AF7018491D6
:10533000F3CF6091F9147091FA148091FB1490915D
:10534000FC140E94D1A080E290E00E94E76D22CF81
:1053500080912C0F882309F453C0E7E9F6E084918B
:105360007F01882359F0082E000C990B0E94E76DED
:10537000FFEFEF1AFF0AF7018491F3CF80912D0F11
:10538000882361F12091FA10222321F18091A41148
:105390009091A511A091A611B091A7110097A10518
:1053A000B105B9F0BC01CD016D597F4F8F4F9F4FB3
:1053B00024E630E040E050E00E940FBF6091A81169
:1053C0007091A9118091AA119091AB110E940FBF09
:1053D00001C020E030E03A832983D4CEE0E2F5E05A
:1053E00084917F01882309F4D5CE082E000C990BF7
:1053F0000E94E76DFFEFEF1AFF0AF7018491F2CFE9
:10540000EFE8F6E084917F01882309F4C3CE082EEB
:10541000000C990B0E94E76DFFEFEF1AFF0AF701EE
:105420008491F2CFEAE8F6E084917F01882359F075
:10543000082E000C990B0E94E76DFFEFEF1AFF0A90
:10544000F7018491F3CF8090110690901206A090FE
:105450001306B090140681149104A104B10409F458
:1054600076C00E94674DA30192010E940FBF69019F
:105470007A01C501B401A30192010E940FBF760118
:10548000E21AF30AC7016CE370E00E943BC2CB0151
:105490009927EAE0F0E0BF010E944FC2282FCB011C
:1054A000BF010E944FC2805D80938404205D2093E1
:1054B00085041092860464E874E08CE69EE00E9405
:1054C000507180E290E00E94E76DE8E8F6E0849198
:1054D0005F01882359F0082E000C990B0E94E76D9C
:1054E000FFEFAF1ABF0AF5018491F3CF80E290E09D
:1054F0000E94E76DC7016CE370E00E943BC26AE066
:1055000070E00E944FC2605D60938404805D809370
:1055100085041092860464E874E08CE69EE00E94A4
:10552000507180E290E00E94E76DE6E8F6E0849139
:105530007F01882309F42ECE082E000C990B0E94BF
:10554000E76DFFEFEF1AFF0AF7018491F2CF80E2D7
:1055500090E00E94E76DEEE7F6E084917F018823FA
:1055600009F418CE082E000C990B0E94E76DFFEF8E
:10557000EF1AFF0AF7018491F2CF1092AA0D109250
:10558000A90D8091090180FF12C0EAE7F6E084913D
:105590007F01882309F4FECD082E000C990B0E9490
:1055A000E76DFFEFEF1AFF0AF7018491F2CF0E9437
:1055B0001EA91092430283E50E9434A9882341F07A
:1055C0000E944FA90E94B0C07093A80D6093A70DD0
:1055D000E6E7F6E084917F01882359F0082E000C5D
:1055E000990B0E94E76DFFEFEF1AFF0AF701849114
:1055F000F3CF8DE090E00E94E76D8AE090E00E949A
:10560000E76D0E9467A3E2E7F6E084917F018823BB
:1056100009F4C0CD082E000C990B0E94E76DFFEF36
:10562000EF1AFF0AF7018491F2CF80912C0F8823A3
:10563000D9F081E08093190780939C088093E5124C
:1056400010922C0FEEE6F6E084917F01882309F496
:10565000A1CD082E000C990B0E94E76DFFEFEF1A09
:10566000FF0AF7018491F2CFEAE6F6E084917F0128
:10567000882309F48FCD082E000C990B0E94E76D4A
:10568000FFEFEF1AFF0AF7018491F2CF8091E51244
:10569000882309F496C40E94C6A1E6E6F6E0849148
:1056A0007F01882309F476CD082E000C990B0E9407
:1056B000E76DFFEFEF1AFF0AF7018491F2CF8091B7
:1056C0002C0F811105C08091E512882309F479C45B
:1056D0001092710410922C0F1092E5121092720425
:1056E00087EF90E10E94DF8187EF90E10E94D974FB
:1056F00010922B0F10922A0F0E94754FE4E2F5E0F2
:1057000084917F01882359F0082E000C990B0E9488
:10571000E76DFFEFEF1AFF0AF7018491F3CF8DE0F9
:1057200090E00E94E76D8AE090E00E94E76D5F9A4A
:105730008A9A479A9FB7F894809108018160809374
:1057400008019FBF479A129A82E696E0D3C10E9451
:10575000A8A9811136C48091E512882309F4DAC41E
:1057600030C40E94A8A981112CC48091E51288231D
:1057700009F4EAC426C40E94A8A981110BCD809126
:10578000E512882309F402C505CD83E50E9434A9FA
:10579000811125C583E40E9434A9882309F411C42A
:1057A0000E94A8A9882309F41AC50BC483E50E94A6
:1057B00034A9882309F405C40E944FA920E030E0F1
:1057C000A9010E9421BB87FD0FC00E944FA920E0C4
:1057D00030E046E153E40E948DC1181644F00E9467
:1057E0004FA90E94B0C005C060E070E002C066E949
:1057F00070E070935F1260935E120E941095E1C397
:1058000083E50E9434A98823D9F00E944FA920E0A3
:1058100030E04FE753E40E9486BB20E030E048ECE4
:1058200052E40E9443C00E94B0C06F3F710519F05E
:1058300010F06FEF70E070935C0660935B06AACC8B
:105840008FEF90E090935C0680935B06A3CC8091F1
:10585000180781119FCC80912C0F81119BCC0E9445
:10586000754F5F9A8A9A479A9FB7F894809108017A
:105870008160809308019FBF479A129A8BCC83E581
:105880000E9434A9882319F10E944FA920E030E03A
:1058900040E252E40E9421BB87FD0FC00E944FA945
:1058A00020E030EC49E754E40E948DC1181644F022
:1058B0000E944FA90E94ABC005C068E270E002C020
:1058C00067EE73E070930702609306027AC3E5E522
:1058D000F6E084917F01882359F0082E000C990B83
:1058E0000E94E76DFFEFEF1AFF0AF7018491F3CFF3
:1058F000C0900602D09007020D2C000CEE08FF08A5
:10590000F7FE0EC06DE28CE69EE00E94B459662759
:105910007727CB016C197D098E099F094AE003C0E6
:105920004AE0C701B6010E948EA034CC0E94A8A90B
:10593000811147C38091E512882309F4AEC041C3A9
:105940000E94A8A9811126CC8091E512882309F430
:1059500078C420CC0E94A8A9811133C38091E5129C
:10596000882309F4B8C52DC30E94A8A9811129C3B1
:105970008091E512882309F4D1C523C30E94A8A908
:1059800081111FC38091E512882309F4EAC519C368
:105990000E94AE9E8091090180FF13C3EAEAF5E000
:1059A00084917F01882309F4F5CB082E000C990B14
:1059B0000E94E76DFFEFEF1AFF0AF7018491F2CF23
:1059C0008FE40E9434A98111E5CB83E40E9434A9BD
:1059D000E1CB88E50E9434A9882331F00E944FA9C9
:1059E0000E94B0C0F62E01C0F12C89E50E9434A9B6
:1059F000882329F00E944FA90E94B0C001C060E036
:105A000025E0F29EF0011124E60FF11DEE0FFF1FBD
:105A1000EE0FFF1FE656F94F6081718182819381FD
:105A200020E030E048EC52E40E9486BB4B015C0170
:105A3000E4EAF5E084917F01882359F0082E000CF8
:105A4000990B0E94E76D8FEFE81AF80AF70184912D
:105A5000F3CFC501B4010E94D1A09CCB8091060771
:105A60008A3A91F4E0EAF5E084917F01882309F411
:105A700091CB082E000C990B0E94E76DFFEFEF1AF7
:105A8000FF0AF7018491F2CF0E94A8A9811188C56D
:105A900080912C0F811184C5A8C588E50E9434A986
:105AA000811106C089E50E9434A9882309F4BBC38B
:105AB00088E50E9434A9882341F08FE496E0909312
:105AC000E4128093E3120E944C9089E50E9434A96D
:105AD000882341F089E496E09093E4128093E312E6
